{
  "_format": "hh-sol-artifact-1",
  "contractName": "ContractMe",
  "sourceName": "contracts/ContractMe.sol",
  "abi": [
    {
      "inputs": [],
      "stateMutability": "nonpayable",
      "type": "constructor"
    },
    {
      "inputs": [],
      "name": "ALREADY_MINTED",
      "type": "error"
    },
    {
      "inputs": [],
      "name": "ERROR_PRICE",
      "type": "error"
    },
    {
      "inputs": [],
      "name": "NOT_MINTED",
      "type": "error"
    },
    {
      "inputs": [],
      "name": "NOT_OWNER",
      "type": "error"
    },
    {
      "inputs": [],
      "name": "TransferFailed",
      "type": "error"
    },
    {
      "anonymous": false,
      "inputs": [
        {
          "indexed": true,
          "internalType": "address",
          "name": "owner",
          "type": "address"
        },
        {
          "indexed": true,
          "internalType": "address",
          "name": "spender",
          "type": "address"
        },
        {
          "indexed": true,
          "internalType": "uint256",
          "name": "id",
          "type": "uint256"
        }
      ],
      "name": "Approval",
      "type": "event"
    },
    {
      "anonymous": false,
      "inputs": [
        {
          "indexed": true,
          "internalType": "address",
          "name": "owner",
          "type": "address"
        },
        {
          "indexed": true,
          "internalType": "address",
          "name": "operator",
          "type": "address"
        },
        {
          "indexed": false,
          "internalType": "bool",
          "name": "approved",
          "type": "bool"
        }
      ],
      "name": "ApprovalForAll",
      "type": "event"
    },
    {
      "anonymous": false,
      "inputs": [
        {
          "indexed": true,
          "internalType": "uint256",
          "name": "tokenId",
          "type": "uint256"
        }
      ],
      "name": "MINT_SUCCESS",
      "type": "event"
    },
    {
      "anonymous": false,
      "inputs": [
        {
          "indexed": true,
          "internalType": "uint256",
          "name": "tokenId",
          "type": "uint256"
        }
      ],
      "name": "MODIFY_SUCCESS",
      "type": "event"
    },
    {
      "anonymous": false,
      "inputs": [
        {
          "indexed": true,
          "internalType": "address",
          "name": "user",
          "type": "address"
        },
        {
          "indexed": true,
          "internalType": "address",
          "name": "newOwner",
          "type": "address"
        }
      ],
      "name": "OwnershipTransferred",
      "type": "event"
    },
    {
      "anonymous": false,
      "inputs": [
        {
          "indexed": true,
          "internalType": "address",
          "name": "from",
          "type": "address"
        },
        {
          "indexed": true,
          "internalType": "address",
          "name": "to",
          "type": "address"
        },
        {
          "indexed": true,
          "internalType": "uint256",
          "name": "id",
          "type": "uint256"
        }
      ],
      "name": "Transfer",
      "type": "event"
    },
    {
      "stateMutability": "payable",
      "type": "fallback"
    },
    {
      "inputs": [
        {
          "internalType": "address",
          "name": "spender",
          "type": "address"
        },
        {
          "internalType": "uint256",
          "name": "id",
          "type": "uint256"
        }
      ],
      "name": "approve",
      "outputs": [],
      "stateMutability": "nonpayable",
      "type": "function"
    },
    {
      "inputs": [
        {
          "internalType": "address",
          "name": "owner",
          "type": "address"
        }
      ],
      "name": "balanceOf",
      "outputs": [
        {
          "internalType": "uint256",
          "name": "",
          "type": "uint256"
        }
      ],
      "stateMutability": "view",
      "type": "function"
    },
    {
      "inputs": [
        {
          "internalType": "uint256",
          "name": "",
          "type": "uint256"
        }
      ],
      "name": "getApproved",
      "outputs": [
        {
          "internalType": "address",
          "name": "",
          "type": "address"
        }
      ],
      "stateMutability": "view",
      "type": "function"
    },
    {
      "inputs": [
        {
          "internalType": "address",
          "name": "",
          "type": "address"
        },
        {
          "internalType": "address",
          "name": "",
          "type": "address"
        }
      ],
      "name": "isApprovedForAll",
      "outputs": [
        {
          "internalType": "bool",
          "name": "",
          "type": "bool"
        }
      ],
      "stateMutability": "view",
      "type": "function"
    },
    {
      "inputs": [
        {
          "internalType": "string",
          "name": "name",
          "type": "string"
        },
        {
          "internalType": "string",
          "name": "github",
          "type": "string"
        },
        {
          "internalType": "string",
          "name": "x",
          "type": "string"
        },
        {
          "internalType": "string",
          "name": "email",
          "type": "string"
        }
      ],
      "name": "mint",
      "outputs": [],
      "stateMutability": "payable",
      "type": "function"
    },
    {
      "inputs": [],
      "name": "mintPrice",
      "outputs": [
        {
          "internalType": "uint256",
          "name": "",
          "type": "uint256"
        }
      ],
      "stateMutability": "view",
      "type": "function"
    },
    {
      "inputs": [
        {
          "internalType": "string",
          "name": "name",
          "type": "string"
        },
        {
          "internalType": "string",
          "name": "github",
          "type": "string"
        },
        {
          "internalType": "string",
          "name": "x",
          "type": "string"
        },
        {
          "internalType": "string",
          "name": "email",
          "type": "string"
        }
      ],
      "name": "modify",
      "outputs": [],
      "stateMutability": "payable",
      "type": "function"
    },
    {
      "inputs": [],
      "name": "modifyPrice",
      "outputs": [
        {
          "internalType": "uint256",
          "name": "",
          "type": "uint256"
        }
      ],
      "stateMutability": "view",
      "type": "function"
    },
    {
      "inputs": [],
      "name": "name",
      "outputs": [
        {
          "internalType": "string",
          "name": "",
          "type": "string"
        }
      ],
      "stateMutability": "view",
      "type": "function"
    },
    {
      "inputs": [],
      "name": "owner",
      "outputs": [
        {
          "internalType": "address",
          "name": "",
          "type": "address"
        }
      ],
      "stateMutability": "view",
      "type": "function"
    },
    {
      "inputs": [
        {
          "internalType": "uint256",
          "name": "id",
          "type": "uint256"
        }
      ],
      "name": "ownerOf",
      "outputs": [
        {
          "internalType": "address",
          "name": "owner",
          "type": "address"
        }
      ],
      "stateMutability": "view",
      "type": "function"
    },
    {
      "inputs": [
        {
          "internalType": "address",
          "name": "from",
          "type": "address"
        },
        {
          "internalType": "address",
          "name": "to",
          "type": "address"
        },
        {
          "internalType": "uint256",
          "name": "id",
          "type": "uint256"
        }
      ],
      "name": "safeTransferFrom",
      "outputs": [],
      "stateMutability": "nonpayable",
      "type": "function"
    },
    {
      "inputs": [
        {
          "internalType": "address",
          "name": "from",
          "type": "address"
        },
        {
          "internalType": "address",
          "name": "to",
          "type": "address"
        },
        {
          "internalType": "uint256",
          "name": "id",
          "type": "uint256"
        },
        {
          "internalType": "bytes",
          "name": "data",
          "type": "bytes"
        }
      ],
      "name": "safeTransferFrom",
      "outputs": [],
      "stateMutability": "nonpayable",
      "type": "function"
    },
    {
      "inputs": [
        {
          "internalType": "address",
          "name": "operator",
          "type": "address"
        },
        {
          "internalType": "bool",
          "name": "approved",
          "type": "bool"
        }
      ],
      "name": "setApprovalForAll",
      "outputs": [],
      "stateMutability": "nonpayable",
      "type": "function"
    },
    {
      "inputs": [
        {
          "internalType": "uint256",
          "name": "p",
          "type": "uint256"
        }
      ],
      "name": "setModifyPrice",
      "outputs": [],
      "stateMutability": "nonpayable",
      "type": "function"
    },
    {
      "inputs": [
        {
          "internalType": "uint256",
          "name": "p",
          "type": "uint256"
        }
      ],
      "name": "setPrice",
      "outputs": [],
      "stateMutability": "nonpayable",
      "type": "function"
    },
    {
      "inputs": [
        {
          "internalType": "uint256",
          "name": "tokenId",
          "type": "uint256"
        }
      ],
      "name": "starOf",
      "outputs": [
        {
          "components": [
            {
              "internalType": "string",
              "name": "name",
              "type": "string"
            },
            {
              "internalType": "string",
              "name": "github",
              "type": "string"
            },
            {
              "internalType": "string",
              "name": "x",
              "type": "string"
            },
            {
              "internalType": "string",
              "name": "email",
              "type": "string"
            }
          ],
          "internalType": "struct ContractMe.Star",
          "name": "star",
          "type": "tuple"
        }
      ],
      "stateMutability": "view",
      "type": "function"
    },
    {
      "inputs": [],
      "name": "starWalk",
      "outputs": [
        {
          "components": [
            {
              "internalType": "string",
              "name": "name",
              "type": "string"
            },
            {
              "internalType": "string",
              "name": "github",
              "type": "string"
            },
            {
              "internalType": "string",
              "name": "x",
              "type": "string"
            },
            {
              "internalType": "string",
              "name": "email",
              "type": "string"
            }
          ],
          "internalType": "struct ContractMe.Star",
          "name": "star",
          "type": "tuple"
        }
      ],
      "stateMutability": "view",
      "type": "function"
    },
    {
      "inputs": [
        {
          "internalType": "bytes4",
          "name": "interfaceId",
          "type": "bytes4"
        }
      ],
      "name": "supportsInterface",
      "outputs": [
        {
          "internalType": "bool",
          "name": "",
          "type": "bool"
        }
      ],
      "stateMutability": "view",
      "type": "function"
    },
    {
      "inputs": [],
      "name": "symbol",
      "outputs": [
        {
          "internalType": "string",
          "name": "",
          "type": "string"
        }
      ],
      "stateMutability": "view",
      "type": "function"
    },
    {
      "inputs": [
        {
          "internalType": "uint256",
          "name": "id",
          "type": "uint256"
        }
      ],
      "name": "tokenURI",
      "outputs": [
        {
          "internalType": "string",
          "name": "",
          "type": "string"
        }
      ],
      "stateMutability": "view",
      "type": "function"
    },
    {
      "inputs": [],
      "name": "totalStars",
      "outputs": [
        {
          "internalType": "uint256",
          "name": "",
          "type": "uint256"
        }
      ],
      "stateMutability": "view",
      "type": "function"
    },
    {
      "inputs": [
        {
          "internalType": "address",
          "name": "from",
          "type": "address"
        },
        {
          "internalType": "address",
          "name": "to",
          "type": "address"
        },
        {
          "internalType": "uint256",
          "name": "id",
          "type": "uint256"
        }
      ],
      "name": "transferFrom",
      "outputs": [],
      "stateMutability": "nonpayable",
      "type": "function"
    },
    {
      "inputs": [
        {
          "internalType": "address",
          "name": "newOwner",
          "type": "address"
        }
      ],
      "name": "transferOwnership",
      "outputs": [],
      "stateMutability": "nonpayable",
      "type": "function"
    },
    {
      "inputs": [
        {
          "internalType": "address",
          "name": "",
          "type": "address"
        }
      ],
      "name": "userTokens",
      "outputs": [
        {
          "internalType": "uint256",
          "name": "",
          "type": "uint256"
        }
      ],
      "stateMutability": "view",
      "type": "function"
    },
    {
      "inputs": [],
      "name": "withdraw",
      "outputs": [],
      "stateMutability": "payable",
      "type": "function"
    },
    {
      "stateMutability": "payable",
      "type": "receive"
    }
  ],
  "bytecode": "0x60806040526001600a556601c6bf52634000600b55655af3107a4000600c553480156200002b57600080fd5b50336040518060400160405280600b81526020017f436f6e7472616374204d650000000000000000000000000000000000000000008152506040518060400160405280600281526020017f434d0000000000000000000000000000000000000000000000000000000000008152508160009081620000aa919062000476565b508060019081620000bc919062000476565b50505080600660006101000a81548173ffffffffffffffffffffffffffffffffffffffff021916908373ffffffffffffffffffffffffffffffffffffffff1602179055508073ffffffffffffffffffffffffffffffffffffffff16600073ffffffffffffffffffffffffffffffffffffffff167f8be0079c531659141344cd1fd0a4f28419497f9722a3daafe3b4186f6b6457e060405160405180910390a350600d80600181540180825580915050600190039060005260206000200160006040518060800160405280604c815260200162003ed2604c913990919091509081620001a8919062000476565b50600d80600181540180825580915050600190039060005260206000200160006040518060800160405280604c815260200162003f1e604c913990919091509081620001f5919062000476565b506200055d565b600081519050919050565b7f4e487b7100000000000000000000000000000000000000000000000000000000600052604160045260246000fd5b7f4e487b7100000000000000000000000000000000000000000000000000000000600052602260045260246000fd5b600060028204905060018216806200027e57607f821691505b60208210810362000294576200029362000236565b5b50919050565b60008190508160005260206000209050919050565b60006020601f8301049050919050565b600082821b905092915050565b600060088302620002fe7fffffffffffffffffffffffffffffffffffffffffffffffffffffffffffffffff82620002bf565b6200030a8683620002bf565b95508019841693508086168417925050509392505050565b6000819050919050565b6000819050919050565b600062000357620003516200034b8462000322565b6200032c565b62000322565b9050919050565b6000819050919050565b620003738362000336565b6200038b62000382826200035e565b848454620002cc565b825550505050565b600090565b620003a262000393565b620003af81848462000368565b505050565b5b81811015620003d757620003cb60008262000398565b600181019050620003b5565b5050565b601f8211156200042657620003f0816200029a565b620003fb84620002af565b810160208510156200040b578190505b620004236200041a85620002af565b830182620003b4565b50505b505050565b600082821c905092915050565b60006200044b600019846008026200042b565b1980831691505092915050565b600062000466838362000438565b9150826002028217905092915050565b6200048182620001fc565b67ffffffffffffffff8111156200049d576200049c62000207565b5b620004a9825462000265565b620004b6828285620003db565b600060209050601f831160018114620004ee5760008415620004d9578287015190505b620004e5858262000458565b86555062000555565b601f198416620004fe866200029a565b60005b82811015620005285784890151825560018201915060208501945060208101905062000501565b8683101562000548578489015162000544601f89168262000438565b8355505b6001600288020188555050505b505050505050565b613965806200056d6000396000f3fe6080604052600436106101855760003560e01c80636817c76c116100d1578063a22cb4651161008a578063df3ed9cd11610064578063df3ed9cd14610561578063e985e9c51461058a578063ed498fa8146105c7578063f2fde38b146106045761018c565b8063a22cb465146104d2578063b88d4fde146104fb578063c87b56dd146105245761018c565b80636817c76c146103c057806370a08231146103eb5780638da5cb5b1461042857806391b7f5ed1461045357806395d89b411461047c5780639bca803c146104a75761018c565b806323b872dd1161013e5780633ccfd60b116101185780633ccfd60b1461032557806342842e0e1461032f57806356b4e9ba146103585780636352211e146103835761018c565b806323b872dd146102a357806326b6fc7e146102cc5780632aa52b4b146102e85761018c565b806301ffc9a71461018e57806302341c71146101cb57806306fdde03146101e7578063081812fc14610212578063095ea7b31461024f5780631f61f1a8146102785761018c565b3661018c57005b005b34801561019a57600080fd5b506101b560048036038101906101b09190612757565b61062d565b6040516101c2919061279f565b60405180910390f35b6101e560048036038101906101e09190612900565b6106bf565b005b3480156101f357600080fd5b506101fc610874565b6040516102099190612a56565b60405180910390f35b34801561021e57600080fd5b5061023960048036038101906102349190612aae565b610902565b6040516102469190612b1c565b60405180910390f35b34801561025b57600080fd5b5061027660048036038101906102719190612b63565b610935565b005b34801561028457600080fd5b5061028d610b1e565b60405161029a9190612bb2565b60405180910390f35b3480156102af57600080fd5b506102ca60048036038101906102c59190612bcd565b610b34565b005b6102e660048036038101906102e19190612900565b610f33565b005b3480156102f457600080fd5b5061030f600480360381019061030a9190612aae565b611327565b60405161031c9190612ce2565b60405180910390f35b61032d611609565b005b34801561033b57600080fd5b5061035660048036038101906103519190612bcd565b61173f565b005b34801561036457600080fd5b5061036d611877565b60405161037a9190612bb2565b60405180910390f35b34801561038f57600080fd5b506103aa60048036038101906103a59190612aae565b61187d565b6040516103b79190612b1c565b60405180910390f35b3480156103cc57600080fd5b506103d5611928565b6040516103e29190612bb2565b60405180910390f35b3480156103f757600080fd5b50610412600480360381019061040d9190612d04565b61192e565b60405161041f9190612bb2565b60405180910390f35b34801561043457600080fd5b5061043d6119e5565b60405161044a9190612b1c565b60405180910390f35b34801561045f57600080fd5b5061047a60048036038101906104759190612aae565b611a0b565b005b34801561048857600080fd5b50610491611aa5565b60405161049e9190612a56565b60405180910390f35b3480156104b357600080fd5b506104bc611b33565b6040516104c99190612ce2565b60405180910390f35b3480156104de57600080fd5b506104f960048036038101906104f49190612d5d565b611df8565b005b34801561050757600080fd5b50610522600480360381019061051d9190612dfd565b611ef5565b005b34801561053057600080fd5b5061054b60048036038101906105469190612aae565b612033565b6040516105589190612a56565b60405180910390f35b34801561056d57600080fd5b5061058860048036038101906105839190612aae565b6120f9565b005b34801561059657600080fd5b506105b160048036038101906105ac9190612e85565b612193565b6040516105be919061279f565b60405180910390f35b3480156105d357600080fd5b506105ee60048036038101906105e99190612d04565b6121c2565b6040516105fb9190612bb2565b60405180910390f35b34801561061057600080fd5b5061062b60048036038101906106269190612d04565b6121da565b005b60006301ffc9a760e01b827bffffffffffffffffffffffffffffffffffffffffffffffffffffffff1916148061068857506380ac58cd60e01b827bffffffffffffffffffffffffffffffffffffffffffffffffffffffff1916145b806106b85750635b5e139f60e01b827bffffffffffffffffffffffffffffffffffffffffffffffffffffffff1916145b9050919050565b60006106ca3361192e565b1115610702576040517fdfa4c0d500000000000000000000000000000000000000000000000000000000815260040160405180910390fd5b600b5434101561073e576040517f1ee3c59200000000000000000000000000000000000000000000000000000000815260040160405180910390fd5b600060405180608001604052808681526020018581526020018481526020018381525090506000600a549050600a600081548092919061077d90612ef4565b919050555061078c3382612308565b80600860003373ffffffffffffffffffffffffffffffffffffffff1673ffffffffffffffffffffffffffffffffffffffff16815260200190815260200160002081905550816009600083815260200190815260200160002060008201518160000190816107f99190613148565b50602082015181600101908161080f9190613148565b5060408201518160020190816108259190613148565b50606082015181600301908161083b9190613148565b50905050807fe429f1f1b4891978621f4913aa4dff19deb2131ad457095b0c72cca7f6e9acc060405160405180910390a2505050505050565b6000805461088190612f6b565b80601f01602080910402602001604051908101604052809291908181526020018280546108ad90612f6b565b80156108fa5780601f106108cf576101008083540402835291602001916108fa565b820191906000526020600020905b8154815290600101906020018083116108dd57829003601f168201915b505050505081565b60046020528060005260406000206000915054906101000a900473ffffffffffffffffffffffffffffffffffffffff1681565b60006002600083815260200190815260200160002060009054906101000a900473ffffffffffffffffffffffffffffffffffffffff1690508073ffffffffffffffffffffffffffffffffffffffff163373ffffffffffffffffffffffffffffffffffffffff161480610a2d5750600560008273ffffffffffffffffffffffffffffffffffffffff1673ffffffffffffffffffffffffffffffffffffffff16815260200190815260200160002060003373ffffffffffffffffffffffffffffffffffffffff1673ffffffffffffffffffffffffffffffffffffffff16815260200190815260200160002060009054906101000a900460ff165b610a6c576040517f08c379a0000000000000000000000000000000000000000000000000000000008152600401610a6390613266565b60405180910390fd5b826004600084815260200190815260200160002060006101000a81548173ffffffffffffffffffffffffffffffffffffffff021916908373ffffffffffffffffffffffffffffffffffffffff160217905550818373ffffffffffffffffffffffffffffffffffffffff168273ffffffffffffffffffffffffffffffffffffffff167f8c5be1e5ebec7d5bd14f71427d1e84f3dd0314c0f7b2291e5b200ac8c7c3b92560405160405180910390a4505050565b60006001600a54610b2f9190613286565b905090565b6002600082815260200190815260200160002060009054906101000a900473ffffffffffffffffffffffffffffffffffffffff1673ffffffffffffffffffffffffffffffffffffffff168373ffffffffffffffffffffffffffffffffffffffff1614610bd5576040517f08c379a0000000000000000000000000000000000000000000000000000000008152600401610bcc90613306565b60405180910390fd5b600073ffffffffffffffffffffffffffffffffffffffff168273ffffffffffffffffffffffffffffffffffffffff1603610c44576040517f08c379a0000000000000000000000000000000000000000000000000000000008152600401610c3b90613372565b60405180910390fd5b8273ffffffffffffffffffffffffffffffffffffffff163373ffffffffffffffffffffffffffffffffffffffff161480610d045750600560008473ffffffffffffffffffffffffffffffffffffffff1673ffffffffffffffffffffffffffffffffffffffff16815260200190815260200160002060003373ffffffffffffffffffffffffffffffffffffffff1673ffffffffffffffffffffffffffffffffffffffff16815260200190815260200160002060009054906101000a900460ff165b80610d6d57506004600082815260200190815260200160002060009054906101000a900473ffffffffffffffffffffffffffffffffffffffff1673ffffffffffffffffffffffffffffffffffffffff163373ffffffffffffffffffffffffffffffffffffffff16145b610dac576040517f08c379a0000000000000000000000000000000000000000000000000000000008152600401610da390613266565b60405180910390fd5b600360008473ffffffffffffffffffffffffffffffffffffffff1673ffffffffffffffffffffffffffffffffffffffff1681526020019081526020016000206000815480929190600190039190505550600360008373ffffffffffffffffffffffffffffffffffffffff1673ffffffffffffffffffffffffffffffffffffffff16815260200190815260200160002060008154809291906001019190505550816002600083815260200190815260200160002060006101000a81548173ffffffffffffffffffffffffffffffffffffffff021916908373ffffffffffffffffffffffffffffffffffffffff1602179055506004600082815260200190815260200160002060006101000a81549073ffffffffffffffffffffffffffffffffffffffff0219169055808273ffffffffffffffffffffffffffffffffffffffff168473ffffffffffffffffffffffffffffffffffffffff167fddf252ad1be2c89b69c2b068fc378daa952ba7f163c4a11628f55a4df523b3ef60405160405180910390a4505050565b6000610f3e3361192e565b03610f75576040517f29074bf900000000000000000000000000000000000000000000000000000000815260040160405180910390fd5b600c54341015610fb1576040517f1ee3c59200000000000000000000000000000000000000000000000000000000815260040160405180910390fd5b6000600860003373ffffffffffffffffffffffffffffffffffffffff1673ffffffffffffffffffffffffffffffffffffffff16815260200190815260200160002054905060006009600083815260200190815260200160002060405180608001604052908160008201805461102590612f6b565b80601f016020809104026020016040519081016040528092919081815260200182805461105190612f6b565b801561109e5780601f106110735761010080835404028352916020019161109e565b820191906000526020600020905b81548152906001019060200180831161108157829003601f168201915b505050505081526020016001820180546110b790612f6b565b80601f01602080910402602001604051908101604052809291908181526020018280546110e390612f6b565b80156111305780601f1061110557610100808354040283529160200191611130565b820191906000526020600020905b81548152906001019060200180831161111357829003601f168201915b5050505050815260200160028201805461114990612f6b565b80601f016020809104026020016040519081016040528092919081815260200182805461117590612f6b565b80156111c25780601f10611197576101008083540402835291602001916111c2565b820191906000526020600020905b8154815290600101906020018083116111a557829003601f168201915b505050505081526020016003820180546111db90612f6b565b80601f016020809104026020016040519081016040528092919081815260200182805461120790612f6b565b80156112545780601f1061122957610100808354040283529160200191611254565b820191906000526020600020905b81548152906001019060200180831161123757829003601f168201915b5050505050815250509050858160000181905250848160200181905250838160400181905250828160600181905250806009600084815260200190815260200160002060008201518160000190816112ac9190613148565b5060208201518160010190816112c29190613148565b5060408201518160020190816112d89190613148565b5060608201518160030190816112ee9190613148565b50905050817f4662c9b447b91c3e799d1eeb7fe95d4068d5b314647159af369ea1b27f38551160405160405180910390a2505050505050565b61132f6126c3565b3373ffffffffffffffffffffffffffffffffffffffff1661134f8361187d565b73ffffffffffffffffffffffffffffffffffffffff161461139c576040517f71d78b1200000000000000000000000000000000000000000000000000000000815260040160405180910390fd5b600960008381526020019081526020016000206040518060800160405290816000820180546113ca90612f6b565b80601f01602080910402602001604051908101604052809291908181526020018280546113f690612f6b565b80156114435780601f1061141857610100808354040283529160200191611443565b820191906000526020600020905b81548152906001019060200180831161142657829003601f168201915b5050505050815260200160018201805461145c90612f6b565b80601f016020809104026020016040519081016040528092919081815260200182805461148890612f6b565b80156114d55780601f106114aa576101008083540402835291602001916114d5565b820191906000526020600020905b8154815290600101906020018083116114b857829003601f168201915b505050505081526020016002820180546114ee90612f6b565b80601f016020809104026020016040519081016040528092919081815260200182805461151a90612f6b565b80156115675780601f1061153c57610100808354040283529160200191611567565b820191906000526020600020905b81548152906001019060200180831161154a57829003601f168201915b5050505050815260200160038201805461158090612f6b565b80601f01602080910402602001604051908101604052809291908181526020018280546115ac90612f6b565b80156115f95780601f106115ce576101008083540402835291602001916115f9565b820191906000526020600020905b8154815290600101906020018083116115dc57829003601f168201915b5050505050815250509050919050565b600660009054906101000a900473ffffffffffffffffffffffffffffffffffffffff1673ffffffffffffffffffffffffffffffffffffffff163373ffffffffffffffffffffffffffffffffffffffff1614611699576040517f08c379a0000000000000000000000000000000000000000000000000000000008152600401611690906133de565b60405180910390fd5b60003373ffffffffffffffffffffffffffffffffffffffff16476040516116bf9061342f565b60006040518083038185875af1925050503d80600081146116fc576040519150601f19603f3d011682016040523d82523d6000602084013e611701565b606091505b505090508061173c576040517f90b8ec1800000000000000000000000000000000000000000000000000000000815260040160405180910390fd5b50565b61174a838383610b34565b60008273ffffffffffffffffffffffffffffffffffffffff163b1480611833575063150b7a0260e01b7bffffffffffffffffffffffffffffffffffffffffffffffffffffffff19168273ffffffffffffffffffffffffffffffffffffffff1663150b7a023386856040518463ffffffff1660e01b81526004016117cf93929190613478565b6020604051808303816000875af11580156117ee573d6000803e3d6000fd5b505050506040513d601f19601f8201168201806040525081019061181291906134d7565b7bffffffffffffffffffffffffffffffffffffffffffffffffffffffff1916145b611872576040517f08c379a000000000000000000000000000000000000000000000000000000000815260040161186990613550565b60405180910390fd5b505050565b600c5481565b60008073ffffffffffffffffffffffffffffffffffffffff166002600084815260200190815260200160002060009054906101000a900473ffffffffffffffffffffffffffffffffffffffff1691508173ffffffffffffffffffffffffffffffffffffffff1603611923576040517f08c379a000000000000000000000000000000000000000000000000000000000815260040161191a906135bc565b60405180910390fd5b919050565b600b5481565b60008073ffffffffffffffffffffffffffffffffffffffff168273ffffffffffffffffffffffffffffffffffffffff160361199e576040517f08c379a000000000000000000000000000000000000000000000000000000000815260040161199590613628565b60405180910390fd5b600360008373ffffffffffffffffffffffffffffffffffffffff1673ffffffffffffffffffffffffffffffffffffffff168152602001908152602001600020549050919050565b600660009054906101000a900473ffffffffffffffffffffffffffffffffffffffff1681565b600660009054906101000a900473ffffffffffffffffffffffffffffffffffffffff1673ffffffffffffffffffffffffffffffffffffffff163373ffffffffffffffffffffffffffffffffffffffff1614611a9b576040517f08c379a0000000000000000000000000000000000000000000000000000000008152600401611a92906133de565b60405180910390fd5b80600b8190555050565b60018054611ab290612f6b565b80601f0160208091040260200160405190810160405280929190818152602001828054611ade90612f6b565b8015611b2b5780601f10611b0057610100808354040283529160200191611b2b565b820191906000526020600020905b815481529060010190602001808311611b0e57829003601f168201915b505050505081565b611b3b6126c3565b6001600a5411611b80576040517f08c379a0000000000000000000000000000000000000000000000000000000008152600401611b7790613694565b60405180910390fd5b6000611b8a61243f565b905060096000828152602001908152602001600020604051806080016040529081600082018054611bba90612f6b565b80601f0160208091040260200160405190810160405280929190818152602001828054611be690612f6b565b8015611c335780601f10611c0857610100808354040283529160200191611c33565b820191906000526020600020905b815481529060010190602001808311611c1657829003601f168201915b50505050508152602001600182018054611c4c90612f6b565b80601f0160208091040260200160405190810160405280929190818152602001828054611c7890612f6b565b8015611cc55780601f10611c9a57610100808354040283529160200191611cc5565b820191906000526020600020905b815481529060010190602001808311611ca857829003601f168201915b50505050508152602001600282018054611cde90612f6b565b80601f0160208091040260200160405190810160405280929190818152602001828054611d0a90612f6b565b8015611d575780601f10611d2c57610100808354040283529160200191611d57565b820191906000526020600020905b815481529060010190602001808311611d3a57829003601f168201915b50505050508152602001600382018054611d7090612f6b565b80601f0160208091040260200160405190810160405280929190818152602001828054611d9c90612f6b565b8015611de95780601f10611dbe57610100808354040283529160200191611de9565b820191906000526020600020905b815481529060010190602001808311611dcc57829003601f168201915b50505050508152505091505090565b80600560003373ffffffffffffffffffffffffffffffffffffffff1673ffffffffffffffffffffffffffffffffffffffff16815260200190815260200160002060008473ffffffffffffffffffffffffffffffffffffffff1673ffffffffffffffffffffffffffffffffffffffff16815260200190815260200160002060006101000a81548160ff0219169083151502179055508173ffffffffffffffffffffffffffffffffffffffff163373ffffffffffffffffffffffffffffffffffffffff167f17307eab39ab6107e8899845ad3d59bd9653f200f220920489ca2b5937696c3183604051611ee9919061279f565b60405180910390a35050565b611f00858585610b34565b60008473ffffffffffffffffffffffffffffffffffffffff163b1480611fed575063150b7a0260e01b7bffffffffffffffffffffffffffffffffffffffffffffffffffffffff19168473ffffffffffffffffffffffffffffffffffffffff1663150b7a0233888787876040518663ffffffff1660e01b8152600401611f899594939291906136e1565b6020604051808303816000875af1158015611fa8573d6000803e3d6000fd5b505050506040513d601f19601f82011682018060405250810190611fcc91906134d7565b7bffffffffffffffffffffffffffffffffffffffffffffffffffffffff1916145b61202c576040517f08c379a000000000000000000000000000000000000000000000000000000000815260040161202390613550565b60405180910390fd5b5050505050565b60606000600d8054905083612048919061375e565b9050600d818154811061205e5761205d61378f565b5b90600052602060002001805461207390612f6b565b80601f016020809104026020016040519081016040528092919081815260200182805461209f90612f6b565b80156120ec5780601f106120c1576101008083540402835291602001916120ec565b820191906000526020600020905b8154815290600101906020018083116120cf57829003601f168201915b5050505050915050919050565b600660009054906101000a900473ffffffffffffffffffffffffffffffffffffffff1673ffffffffffffffffffffffffffffffffffffffff163373ffffffffffffffffffffffffffffffffffffffff1614612189576040517f08c379a0000000000000000000000000000000000000000000000000000000008152600401612180906133de565b60405180910390fd5b80600c8190555050565b60056020528160005260406000206020528060005260406000206000915091509054906101000a900460ff1681565b60086020528060005260406000206000915090505481565b600660009054906101000a900473ffffffffffffffffffffffffffffffffffffffff1673ffffffffffffffffffffffffffffffffffffffff163373ffffffffffffffffffffffffffffffffffffffff161461226a576040517f08c379a0000000000000000000000000000000000000000000000000000000008152600401612261906133de565b60405180910390fd5b80600660006101000a81548173ffffffffffffffffffffffffffffffffffffffff021916908373ffffffffffffffffffffffffffffffffffffffff1602179055508073ffffffffffffffffffffffffffffffffffffffff163373ffffffffffffffffffffffffffffffffffffffff167f8be0079c531659141344cd1fd0a4f28419497f9722a3daafe3b4186f6b6457e060405160405180910390a350565b61231282826124b1565b60008273ffffffffffffffffffffffffffffffffffffffff163b14806123fc575063150b7a0260e01b7bffffffffffffffffffffffffffffffffffffffffffffffffffffffff19168273ffffffffffffffffffffffffffffffffffffffff1663150b7a02336000856040518463ffffffff1660e01b815260040161239893929190613478565b6020604051808303816000875af11580156123b7573d6000803e3d6000fd5b505050506040513d601f19601f820116820180604052508101906123db91906134d7565b7bffffffffffffffffffffffffffffffffffffffffffffffffffffffff1916145b61243b576040517f08c379a000000000000000000000000000000000000000000000000000000000815260040161243290613550565b60405180910390fd5b5050565b60008043336001426124519190613286565b4060405160200161246493929190613852565b60405160208183030381529060405280519060200120905060006001600a5461248d9190613286565b90506001818360001c6124a0919061375e565b6124aa919061388f565b9250505090565b600073ffffffffffffffffffffffffffffffffffffffff168273ffffffffffffffffffffffffffffffffffffffff1603612520576040517f08c379a000000000000000000000000000000000000000000000000000000000815260040161251790613372565b60405180910390fd5b600073ffffffffffffffffffffffffffffffffffffffff166002600083815260200190815260200160002060009054906101000a900473ffffffffffffffffffffffffffffffffffffffff1673ffffffffffffffffffffffffffffffffffffffff16146125c2576040517f08c379a00000000000000000000000000000000000000000000000000000000081526004016125b99061390f565b60405180910390fd5b600360008373ffffffffffffffffffffffffffffffffffffffff1673ffffffffffffffffffffffffffffffffffffffff16815260200190815260200160002060008154809291906001019190505550816002600083815260200190815260200160002060006101000a81548173ffffffffffffffffffffffffffffffffffffffff021916908373ffffffffffffffffffffffffffffffffffffffff160217905550808273ffffffffffffffffffffffffffffffffffffffff16600073ffffffffffffffffffffffffffffffffffffffff167fddf252ad1be2c89b69c2b068fc378daa952ba7f163c4a11628f55a4df523b3ef60405160405180910390a45050565b6040518060800160405280606081526020016060815260200160608152602001606081525090565b6000604051905090565b600080fd5b600080fd5b60007fffffffff0000000000000000000000000000000000000000000000000000000082169050919050565b612734816126ff565b811461273f57600080fd5b50565b6000813590506127518161272b565b92915050565b60006020828403121561276d5761276c6126f5565b5b600061277b84828501612742565b91505092915050565b60008115159050919050565b61279981612784565b82525050565b60006020820190506127b46000830184612790565b92915050565b600080fd5b600080fd5b6000601f19601f8301169050919050565b7f4e487b7100000000000000000000000000000000000000000000000000000000600052604160045260246000fd5b61280d826127c4565b810181811067ffffffffffffffff8211171561282c5761282b6127d5565b5b80604052505050565b600061283f6126eb565b905061284b8282612804565b919050565b600067ffffffffffffffff82111561286b5761286a6127d5565b5b612874826127c4565b9050602081019050919050565b82818337600083830152505050565b60006128a361289e84612850565b612835565b9050828152602081018484840111156128bf576128be6127bf565b5b6128ca848285612881565b509392505050565b600082601f8301126128e7576128e66127ba565b5b81356128f7848260208601612890565b91505092915050565b6000806000806080858703121561291a576129196126f5565b5b600085013567ffffffffffffffff811115612938576129376126fa565b5b612944878288016128d2565b945050602085013567ffffffffffffffff811115612965576129646126fa565b5b612971878288016128d2565b935050604085013567ffffffffffffffff811115612992576129916126fa565b5b61299e878288016128d2565b925050606085013567ffffffffffffffff8111156129bf576129be6126fa565b5b6129cb878288016128d2565b91505092959194509250565b600081519050919050565b600082825260208201905092915050565b60005b83811015612a115780820151818401526020810190506129f6565b60008484015250505050565b6000612a28826129d7565b612a3281856129e2565b9350612a428185602086016129f3565b612a4b816127c4565b840191505092915050565b60006020820190508181036000830152612a708184612a1d565b905092915050565b6000819050919050565b612a8b81612a78565b8114612a9657600080fd5b50565b600081359050612aa881612a82565b92915050565b600060208284031215612ac457612ac36126f5565b5b6000612ad284828501612a99565b91505092915050565b600073ffffffffffffffffffffffffffffffffffffffff82169050919050565b6000612b0682612adb565b9050919050565b612b1681612afb565b82525050565b6000602082019050612b316000830184612b0d565b92915050565b612b4081612afb565b8114612b4b57600080fd5b50565b600081359050612b5d81612b37565b92915050565b60008060408385031215612b7a57612b796126f5565b5b6000612b8885828601612b4e565b9250506020612b9985828601612a99565b9150509250929050565b612bac81612a78565b82525050565b6000602082019050612bc76000830184612ba3565b92915050565b600080600060608486031215612be657612be56126f5565b5b6000612bf486828701612b4e565b9350506020612c0586828701612b4e565b9250506040612c1686828701612a99565b9150509250925092565b600082825260208201905092915050565b6000612c3c826129d7565b612c468185612c20565b9350612c568185602086016129f3565b612c5f816127c4565b840191505092915050565b60006080830160008301518482036000860152612c878282612c31565b91505060208301518482036020860152612ca18282612c31565b91505060408301518482036040860152612cbb8282612c31565b91505060608301518482036060860152612cd58282612c31565b9150508091505092915050565b60006020820190508181036000830152612cfc8184612c6a565b905092915050565b600060208284031215612d1a57612d196126f5565b5b6000612d2884828501612b4e565b91505092915050565b612d3a81612784565b8114612d4557600080fd5b50565b600081359050612d5781612d31565b92915050565b60008060408385031215612d7457612d736126f5565b5b6000612d8285828601612b4e565b9250506020612d9385828601612d48565b9150509250929050565b600080fd5b600080fd5b60008083601f840112612dbd57612dbc6127ba565b5b8235905067ffffffffffffffff811115612dda57612dd9612d9d565b5b602083019150836001820283011115612df657612df5612da2565b5b9250929050565b600080600080600060808688031215612e1957612e186126f5565b5b6000612e2788828901612b4e565b9550506020612e3888828901612b4e565b9450506040612e4988828901612a99565b935050606086013567ffffffffffffffff811115612e6a57612e696126fa565b5b612e7688828901612da7565b92509250509295509295909350565b60008060408385031215612e9c57612e9b6126f5565b5b6000612eaa85828601612b4e565b9250506020612ebb85828601612b4e565b9150509250929050565b7f4e487b7100000000000000000000000000000000000000000000000000000000600052601160045260246000fd5b6000612eff82612a78565b91507fffffffffffffffffffffffffffffffffffffffffffffffffffffffffffffffff8203612f3157612f30612ec5565b5b600182019050919050565b7f4e487b7100000000000000000000000000000000000000000000000000000000600052602260045260246000fd5b60006002820490506001821680612f8357607f821691505b602082108103612f9657612f95612f3c565b5b50919050565b60008190508160005260206000209050919050565b60006020601f8301049050919050565b600082821b905092915050565b600060088302612ffe7fffffffffffffffffffffffffffffffffffffffffffffffffffffffffffffffff82612fc1565b6130088683612fc1565b95508019841693508086168417925050509392505050565b6000819050919050565b600061304561304061303b84612a78565b613020565b612a78565b9050919050565b6000819050919050565b61305f8361302a565b61307361306b8261304c565b848454612fce565b825550505050565b600090565b61308861307b565b613093818484613056565b505050565b5b818110156130b7576130ac600082613080565b600181019050613099565b5050565b601f8211156130fc576130cd81612f9c565b6130d684612fb1565b810160208510156130e5578190505b6130f96130f185612fb1565b830182613098565b50505b505050565b600082821c905092915050565b600061311f60001984600802613101565b1980831691505092915050565b6000613138838361310e565b9150826002028217905092915050565b613151826129d7565b67ffffffffffffffff81111561316a576131696127d5565b5b6131748254612f6b565b61317f8282856130bb565b600060209050601f8311600181146131b257600084156131a0578287015190505b6131aa858261312c565b865550613212565b601f1984166131c086612f9c565b60005b828110156131e8578489015182556001820191506020850194506020810190506131c3565b868310156132055784890151613201601f89168261310e565b8355505b6001600288020188555050505b505050505050565b7f4e4f545f415554484f52495a4544000000000000000000000000000000000000600082015250565b6000613250600e836129e2565b915061325b8261321a565b602082019050919050565b6000602082019050818103600083015261327f81613243565b9050919050565b600061329182612a78565b915061329c83612a78565b92508282039050818111156132b4576132b3612ec5565b5b92915050565b7f57524f4e475f46524f4d00000000000000000000000000000000000000000000600082015250565b60006132f0600a836129e2565b91506132fb826132ba565b602082019050919050565b6000602082019050818103600083015261331f816132e3565b9050919050565b7f494e56414c49445f524543495049454e54000000000000000000000000000000600082015250565b600061335c6011836129e2565b915061336782613326565b602082019050919050565b6000602082019050818103600083015261338b8161334f565b9050919050565b7f554e415554484f52495a45440000000000000000000000000000000000000000600082015250565b60006133c8600c836129e2565b91506133d382613392565b602082019050919050565b600060208201905081810360008301526133f7816133bb565b9050919050565b600081905092915050565b50565b60006134196000836133fe565b915061342482613409565b600082019050919050565b600061343a8261340c565b9150819050919050565b600082825260208201905092915050565b6000613462600083613444565b915061346d82613409565b600082019050919050565b600060808201905061348d6000830186612b0d565b61349a6020830185612b0d565b6134a76040830184612ba3565b81810360608301526134b881613455565b9050949350505050565b6000815190506134d18161272b565b92915050565b6000602082840312156134ed576134ec6126f5565b5b60006134fb848285016134c2565b91505092915050565b7f554e534146455f524543495049454e5400000000000000000000000000000000600082015250565b600061353a6010836129e2565b915061354582613504565b602082019050919050565b600060208201905081810360008301526135698161352d565b9050919050565b7f4e4f545f4d494e54454400000000000000000000000000000000000000000000600082015250565b60006135a6600a836129e2565b91506135b182613570565b602082019050919050565b600060208201905081810360008301526135d581613599565b9050919050565b7f5a45524f5f414444524553530000000000000000000000000000000000000000600082015250565b6000613612600c836129e2565b915061361d826135dc565b602082019050919050565b6000602082019050818103600083015261364181613605565b9050919050565b7f6e6f205374617200000000000000000000000000000000000000000000000000600082015250565b600061367e6007836129e2565b915061368982613648565b602082019050919050565b600060208201905081810360008301526136ad81613671565b9050919050565b60006136c08385613444565b93506136cd838584612881565b6136d6836127c4565b840190509392505050565b60006080820190506136f66000830188612b0d565b6137036020830187612b0d565b6137106040830186612ba3565b81810360608301526137238184866136b4565b90509695505050505050565b7f4e487b7100000000000000000000000000000000000000000000000000000000600052601260045260246000fd5b600061376982612a78565b915061377483612a78565b9250826137845761378361372f565b5b828206905092915050565b7f4e487b7100000000000000000000000000000000000000000000000000000000600052603260045260246000fd5b6000819050919050565b6137d96137d482612a78565b6137be565b82525050565b60008160601b9050919050565b60006137f7826137df565b9050919050565b6000613809826137ec565b9050919050565b61382161381c82612afb565b6137fe565b82525050565b6000819050919050565b6000819050919050565b61384c61384782613827565b613831565b82525050565b600061385e82866137c8565b60208201915061386e8285613810565b60148201915061387e828461383b565b602082019150819050949350505050565b600061389a82612a78565b91506138a583612a78565b92508282019050808211156138bd576138bc612ec5565b5b92915050565b7f414c52454144595f4d494e544544000000000000000000000000000000000000600082015250565b60006138f9600e836129e2565b9150613904826138c3565b602082019050919050565b60006020820190508181036000830152613928816138ec565b905091905056fea26469706673582212209a14c982be2a7d91a9c6942a57fcb6e01b93138581f15725596a53588fb95e3564736f6c6343000818003368747470733a2f2f697066732e66696c65626173652e696f2f697066732f516d556a527a6f777a7545747831564d7a44466f46704d334261616279696a7839704e484b56387a4d517a53664368747470733a2f2f697066732e66696c65626173652e696f2f697066732f516d5a487438563364697756544671584b78384e514e7467414b415134714d787243636f567861526b486d4b6551",
  "linkReferences": {},
  "deployedLinkReferences": {}
}