{
  "_format": "hh-sol-artifact-1",
  "contractName": "ContractMe",
  "sourceName": "contracts/ContractMe.sol",
  "abi": [
    {
      "inputs": [],
      "stateMutability": "nonpayable",
      "type": "constructor"
    },
    {
      "inputs": [],
      "name": "ALREADY_MINTED",
      "type": "error"
    },
    {
      "inputs": [],
      "name": "ERROR_PRICE",
      "type": "error"
    },
    {
      "inputs": [],
      "name": "TransferFailed",
      "type": "error"
    },
    {
      "anonymous": false,
      "inputs": [
        {
          "indexed": true,
          "internalType": "address",
          "name": "owner",
          "type": "address"
        },
        {
          "indexed": true,
          "internalType": "address",
          "name": "spender",
          "type": "address"
        },
        {
          "indexed": true,
          "internalType": "uint256",
          "name": "id",
          "type": "uint256"
        }
      ],
      "name": "Approval",
      "type": "event"
    },
    {
      "anonymous": false,
      "inputs": [
        {
          "indexed": true,
          "internalType": "address",
          "name": "owner",
          "type": "address"
        },
        {
          "indexed": true,
          "internalType": "address",
          "name": "operator",
          "type": "address"
        },
        {
          "indexed": false,
          "internalType": "bool",
          "name": "approved",
          "type": "bool"
        }
      ],
      "name": "ApprovalForAll",
      "type": "event"
    },
    {
      "anonymous": false,
      "inputs": [
        {
          "indexed": true,
          "internalType": "uint256",
          "name": "tokenId",
          "type": "uint256"
        }
      ],
      "name": "MINT_SUCCESS",
      "type": "event"
    },
    {
      "anonymous": false,
      "inputs": [
        {
          "indexed": true,
          "internalType": "uint256",
          "name": "tokenId",
          "type": "uint256"
        }
      ],
      "name": "MODIFY_SUCCESS",
      "type": "event"
    },
    {
      "anonymous": false,
      "inputs": [
        {
          "indexed": true,
          "internalType": "address",
          "name": "user",
          "type": "address"
        },
        {
          "indexed": true,
          "internalType": "address",
          "name": "newOwner",
          "type": "address"
        }
      ],
      "name": "OwnershipTransferred",
      "type": "event"
    },
    {
      "anonymous": false,
      "inputs": [
        {
          "indexed": true,
          "internalType": "address",
          "name": "from",
          "type": "address"
        },
        {
          "indexed": true,
          "internalType": "address",
          "name": "to",
          "type": "address"
        },
        {
          "indexed": true,
          "internalType": "uint256",
          "name": "id",
          "type": "uint256"
        }
      ],
      "name": "Transfer",
      "type": "event"
    },
    {
      "stateMutability": "payable",
      "type": "fallback"
    },
    {
      "inputs": [
        {
          "internalType": "address",
          "name": "spender",
          "type": "address"
        },
        {
          "internalType": "uint256",
          "name": "id",
          "type": "uint256"
        }
      ],
      "name": "approve",
      "outputs": [],
      "stateMutability": "nonpayable",
      "type": "function"
    },
    {
      "inputs": [
        {
          "internalType": "address",
          "name": "owner",
          "type": "address"
        }
      ],
      "name": "balanceOf",
      "outputs": [
        {
          "internalType": "uint256",
          "name": "",
          "type": "uint256"
        }
      ],
      "stateMutability": "view",
      "type": "function"
    },
    {
      "inputs": [
        {
          "internalType": "uint256",
          "name": "",
          "type": "uint256"
        }
      ],
      "name": "getApproved",
      "outputs": [
        {
          "internalType": "address",
          "name": "",
          "type": "address"
        }
      ],
      "stateMutability": "view",
      "type": "function"
    },
    {
      "inputs": [
        {
          "internalType": "address",
          "name": "",
          "type": "address"
        },
        {
          "internalType": "address",
          "name": "",
          "type": "address"
        }
      ],
      "name": "isApprovedForAll",
      "outputs": [
        {
          "internalType": "bool",
          "name": "",
          "type": "bool"
        }
      ],
      "stateMutability": "view",
      "type": "function"
    },
    {
      "inputs": [
        {
          "internalType": "string",
          "name": "name",
          "type": "string"
        },
        {
          "internalType": "string",
          "name": "github",
          "type": "string"
        },
        {
          "internalType": "string",
          "name": "x",
          "type": "string"
        },
        {
          "internalType": "string",
          "name": "email",
          "type": "string"
        }
      ],
      "name": "mint",
      "outputs": [],
      "stateMutability": "payable",
      "type": "function"
    },
    {
      "inputs": [],
      "name": "mintPrice",
      "outputs": [
        {
          "internalType": "uint256",
          "name": "",
          "type": "uint256"
        }
      ],
      "stateMutability": "view",
      "type": "function"
    },
    {
      "inputs": [
        {
          "internalType": "string",
          "name": "name",
          "type": "string"
        },
        {
          "internalType": "string",
          "name": "github",
          "type": "string"
        },
        {
          "internalType": "string",
          "name": "x",
          "type": "string"
        },
        {
          "internalType": "string",
          "name": "email",
          "type": "string"
        }
      ],
      "name": "modifyCard",
      "outputs": [],
      "stateMutability": "payable",
      "type": "function"
    },
    {
      "inputs": [],
      "name": "modifyPrice",
      "outputs": [
        {
          "internalType": "uint256",
          "name": "",
          "type": "uint256"
        }
      ],
      "stateMutability": "view",
      "type": "function"
    },
    {
      "inputs": [],
      "name": "name",
      "outputs": [
        {
          "internalType": "string",
          "name": "",
          "type": "string"
        }
      ],
      "stateMutability": "view",
      "type": "function"
    },
    {
      "inputs": [],
      "name": "owner",
      "outputs": [
        {
          "internalType": "address",
          "name": "",
          "type": "address"
        }
      ],
      "stateMutability": "view",
      "type": "function"
    },
    {
      "inputs": [
        {
          "internalType": "uint256",
          "name": "id",
          "type": "uint256"
        }
      ],
      "name": "ownerOf",
      "outputs": [
        {
          "internalType": "address",
          "name": "owner",
          "type": "address"
        }
      ],
      "stateMutability": "view",
      "type": "function"
    },
    {
      "inputs": [
        {
          "internalType": "address",
          "name": "from",
          "type": "address"
        },
        {
          "internalType": "address",
          "name": "to",
          "type": "address"
        },
        {
          "internalType": "uint256",
          "name": "id",
          "type": "uint256"
        }
      ],
      "name": "safeTransferFrom",
      "outputs": [],
      "stateMutability": "nonpayable",
      "type": "function"
    },
    {
      "inputs": [
        {
          "internalType": "address",
          "name": "from",
          "type": "address"
        },
        {
          "internalType": "address",
          "name": "to",
          "type": "address"
        },
        {
          "internalType": "uint256",
          "name": "id",
          "type": "uint256"
        },
        {
          "internalType": "bytes",
          "name": "data",
          "type": "bytes"
        }
      ],
      "name": "safeTransferFrom",
      "outputs": [],
      "stateMutability": "nonpayable",
      "type": "function"
    },
    {
      "inputs": [
        {
          "internalType": "address",
          "name": "operator",
          "type": "address"
        },
        {
          "internalType": "bool",
          "name": "approved",
          "type": "bool"
        }
      ],
      "name": "setApprovalForAll",
      "outputs": [],
      "stateMutability": "nonpayable",
      "type": "function"
    },
    {
      "inputs": [
        {
          "internalType": "uint256",
          "name": "p",
          "type": "uint256"
        }
      ],
      "name": "setModifyPrice",
      "outputs": [],
      "stateMutability": "nonpayable",
      "type": "function"
    },
    {
      "inputs": [
        {
          "internalType": "uint256",
          "name": "p",
          "type": "uint256"
        }
      ],
      "name": "setPrice",
      "outputs": [],
      "stateMutability": "nonpayable",
      "type": "function"
    },
    {
      "inputs": [
        {
          "internalType": "uint256",
          "name": "tokenId",
          "type": "uint256"
        }
      ],
      "name": "starWork",
      "outputs": [
        {
          "components": [
            {
              "internalType": "string",
              "name": "name",
              "type": "string"
            },
            {
              "internalType": "string",
              "name": "github",
              "type": "string"
            },
            {
              "internalType": "string",
              "name": "x",
              "type": "string"
            },
            {
              "internalType": "string",
              "name": "email",
              "type": "string"
            }
          ],
          "internalType": "struct ContractMe.Star",
          "name": "star",
          "type": "tuple"
        },
        {
          "internalType": "bool",
          "name": "isOwner",
          "type": "bool"
        }
      ],
      "stateMutability": "view",
      "type": "function"
    },
    {
      "inputs": [
        {
          "internalType": "bytes4",
          "name": "interfaceId",
          "type": "bytes4"
        }
      ],
      "name": "supportsInterface",
      "outputs": [
        {
          "internalType": "bool",
          "name": "",
          "type": "bool"
        }
      ],
      "stateMutability": "view",
      "type": "function"
    },
    {
      "inputs": [],
      "name": "symbol",
      "outputs": [
        {
          "internalType": "string",
          "name": "",
          "type": "string"
        }
      ],
      "stateMutability": "view",
      "type": "function"
    },
    {
      "inputs": [
        {
          "internalType": "uint256",
          "name": "id",
          "type": "uint256"
        }
      ],
      "name": "tokenURI",
      "outputs": [
        {
          "internalType": "string",
          "name": "",
          "type": "string"
        }
      ],
      "stateMutability": "view",
      "type": "function"
    },
    {
      "inputs": [],
      "name": "totalStars",
      "outputs": [
        {
          "internalType": "uint256",
          "name": "",
          "type": "uint256"
        }
      ],
      "stateMutability": "view",
      "type": "function"
    },
    {
      "inputs": [
        {
          "internalType": "address",
          "name": "from",
          "type": "address"
        },
        {
          "internalType": "address",
          "name": "to",
          "type": "address"
        },
        {
          "internalType": "uint256",
          "name": "id",
          "type": "uint256"
        }
      ],
      "name": "transferFrom",
      "outputs": [],
      "stateMutability": "nonpayable",
      "type": "function"
    },
    {
      "inputs": [
        {
          "internalType": "address",
          "name": "newOwner",
          "type": "address"
        }
      ],
      "name": "transferOwnership",
      "outputs": [],
      "stateMutability": "nonpayable",
      "type": "function"
    },
    {
      "inputs": [
        {
          "internalType": "address",
          "name": "",
          "type": "address"
        }
      ],
      "name": "userTokens",
      "outputs": [
        {
          "internalType": "uint256",
          "name": "",
          "type": "uint256"
        }
      ],
      "stateMutability": "view",
      "type": "function"
    },
    {
      "inputs": [],
      "name": "withdraw",
      "outputs": [],
      "stateMutability": "payable",
      "type": "function"
    },
    {
      "stateMutability": "payable",
      "type": "receive"
    }
  ],
  "bytecode": "0x60806040526001600a556601c6bf52634000600b55655af3107a4000600c553480156200002b57600080fd5b50336040518060400160405280600b81526020017f436f6e7472616374204d650000000000000000000000000000000000000000008152506040518060400160405280600281526020017f434d0000000000000000000000000000000000000000000000000000000000008152508160009081620000aa919062000476565b508060019081620000bc919062000476565b50505080600660006101000a81548173ffffffffffffffffffffffffffffffffffffffff021916908373ffffffffffffffffffffffffffffffffffffffff1602179055508073ffffffffffffffffffffffffffffffffffffffff16600073ffffffffffffffffffffffffffffffffffffffff167f8be0079c531659141344cd1fd0a4f28419497f9722a3daafe3b4186f6b6457e060405160405180910390a350600d80600181540180825580915050600190039060005260206000200160006040518060800160405280604c81526020016200398e604c913990919091509081620001a8919062000476565b50600d80600181540180825580915050600190039060005260206000200160006040518060800160405280604c8152602001620039da604c913990919091509081620001f5919062000476565b506200055d565b600081519050919050565b7f4e487b7100000000000000000000000000000000000000000000000000000000600052604160045260246000fd5b7f4e487b7100000000000000000000000000000000000000000000000000000000600052602260045260246000fd5b600060028204905060018216806200027e57607f821691505b60208210810362000294576200029362000236565b5b50919050565b60008190508160005260206000209050919050565b60006020601f8301049050919050565b600082821b905092915050565b600060088302620002fe7fffffffffffffffffffffffffffffffffffffffffffffffffffffffffffffffff82620002bf565b6200030a8683620002bf565b95508019841693508086168417925050509392505050565b6000819050919050565b6000819050919050565b600062000357620003516200034b8462000322565b6200032c565b62000322565b9050919050565b6000819050919050565b620003738362000336565b6200038b62000382826200035e565b848454620002cc565b825550505050565b600090565b620003a262000393565b620003af81848462000368565b505050565b5b81811015620003d757620003cb60008262000398565b600181019050620003b5565b5050565b601f8211156200042657620003f0816200029a565b620003fb84620002af565b810160208510156200040b578190505b620004236200041a85620002af565b830182620003b4565b50505b505050565b600082821c905092915050565b60006200044b600019846008026200042b565b1980831691505092915050565b600062000466838362000438565b9150826002028217905092915050565b6200048182620001fc565b67ffffffffffffffff8111156200049d576200049c62000207565b5b620004a9825462000265565b620004b6828285620003db565b600060209050601f831160018114620004ee5760008415620004d9578287015190505b620004e5858262000458565b86555062000555565b601f198416620004fe866200029a565b60005b82811015620005285784890151825560018201915060208501945060208101905062000501565b8683101562000548578489015162000544601f89168262000438565b8355505b6001600288020188555050505b505050505050565b613421806200056d6000396000f3fe60806040526004361061016a5760003560e01c80636817c76c116100d1578063a22cb4651161008a578063df3ed9cd11610064578063df3ed9cd1461051c578063e985e9c514610545578063ed498fa814610582578063f2fde38b146105bf57610171565b8063a22cb4651461048d578063b88d4fde146104b6578063c87b56dd146104df57610171565b80636817c76c1461038a57806370a08231146103b55780637fd2f0d2146103f25780638da5cb5b1461040e57806391b7f5ed1461043957806395d89b411461046257610171565b806323b872dd1161012357806323b872dd1461028857806339279ee1146102b15780633ccfd60b146102ef57806342842e0e146102f957806356b4e9ba146103225780636352211e1461034d57610171565b806301ffc9a71461017357806302341c71146101b057806306fdde03146101cc578063081812fc146101f7578063095ea7b3146102345780631f61f1a81461025d57610171565b3661017157005b005b34801561017f57600080fd5b5061019a60048036038101906101959190612376565b6105e8565b6040516101a791906123be565b60405180910390f35b6101ca60048036038101906101c5919061251f565b61067a565b005b3480156101d857600080fd5b506101e1610873565b6040516101ee9190612675565b60405180910390f35b34801561020357600080fd5b5061021e600480360381019061021991906126cd565b610901565b60405161022b919061273b565b60405180910390f35b34801561024057600080fd5b5061025b60048036038101906102569190612782565b610934565b005b34801561026957600080fd5b50610272610b1d565b60405161027f91906127d1565b60405180910390f35b34801561029457600080fd5b506102af60048036038101906102aa91906127ec565b610b33565b005b3480156102bd57600080fd5b506102d860048036038101906102d391906126cd565b610f32565b6040516102e6929190612901565b60405180910390f35b6102f76111e9565b005b34801561030557600080fd5b50610320600480360381019061031b91906127ec565b61131f565b005b34801561032e57600080fd5b50610337611457565b60405161034491906127d1565b60405180910390f35b34801561035957600080fd5b50610374600480360381019061036f91906126cd565b61145d565b604051610381919061273b565b60405180910390f35b34801561039657600080fd5b5061039f611508565b6040516103ac91906127d1565b60405180910390f35b3480156103c157600080fd5b506103dc60048036038101906103d79190612931565b61150e565b6040516103e991906127d1565b60405180910390f35b61040c6004803603810190610407919061251f565b6115c5565b005b34801561041a57600080fd5b5061042361193b565b604051610430919061273b565b60405180910390f35b34801561044557600080fd5b50610460600480360381019061045b91906126cd565b611961565b005b34801561046e57600080fd5b506104776119fb565b6040516104849190612675565b60405180910390f35b34801561049957600080fd5b506104b460048036038101906104af919061298a565b611a89565b005b3480156104c257600080fd5b506104dd60048036038101906104d89190612a2a565b611b86565b005b3480156104eb57600080fd5b50610506600480360381019061050191906126cd565b611cc4565b6040516105139190612675565b60405180910390f35b34801561052857600080fd5b50610543600480360381019061053e91906126cd565b611d8a565b005b34801561055157600080fd5b5061056c60048036038101906105679190612ab2565b611e24565b60405161057991906123be565b60405180910390f35b34801561058e57600080fd5b506105a960048036038101906105a49190612931565b611e53565b6040516105b691906127d1565b60405180910390f35b3480156105cb57600080fd5b506105e660048036038101906105e19190612931565b611e6b565b005b60006301ffc9a760e01b827bffffffffffffffffffffffffffffffffffffffffffffffffffffffff1916148061064357506380ac58cd60e01b827bffffffffffffffffffffffffffffffffffffffffffffffffffffffff1916145b806106735750635b5e139f60e01b827bffffffffffffffffffffffffffffffffffffffffffffffffffffffff1916145b9050919050565b60006106853361150e565b11156106bd576040517fdfa4c0d500000000000000000000000000000000000000000000000000000000815260040160405180910390fd5b600b543410156106f9576040517f1ee3c59200000000000000000000000000000000000000000000000000000000815260040160405180910390fd5b600060405180608001604052808681526020018581526020018481526020018381525090506000600a549050600a600081548092919061073890612b21565b91905055506107473382611f99565b80600860003373ffffffffffffffffffffffffffffffffffffffff1673ffffffffffffffffffffffffffffffffffffffff16815260200190815260200160002081905550816009600083815260200190815260200160002060008201518160000190816107b49190612d75565b5060208201518160010190816107ca9190612d75565b5060408201518160020190816107e09190612d75565b5060608201518160030190816107f69190612d75565b5090505042600760003373ffffffffffffffffffffffffffffffffffffffff1673ffffffffffffffffffffffffffffffffffffffff16815260200190815260200160002081905550807fe429f1f1b4891978621f4913aa4dff19deb2131ad457095b0c72cca7f6e9acc060405160405180910390a2505050505050565b6000805461088090612b98565b80601f01602080910402602001604051908101604052809291908181526020018280546108ac90612b98565b80156108f95780601f106108ce576101008083540402835291602001916108f9565b820191906000526020600020905b8154815290600101906020018083116108dc57829003601f168201915b505050505081565b60046020528060005260406000206000915054906101000a900473ffffffffffffffffffffffffffffffffffffffff1681565b60006002600083815260200190815260200160002060009054906101000a900473ffffffffffffffffffffffffffffffffffffffff1690508073ffffffffffffffffffffffffffffffffffffffff163373ffffffffffffffffffffffffffffffffffffffff161480610a2c5750600560008273ffffffffffffffffffffffffffffffffffffffff1673ffffffffffffffffffffffffffffffffffffffff16815260200190815260200160002060003373ffffffffffffffffffffffffffffffffffffffff1673ffffffffffffffffffffffffffffffffffffffff16815260200190815260200160002060009054906101000a900460ff165b610a6b576040517f08c379a0000000000000000000000000000000000000000000000000000000008152600401610a6290612e93565b60405180910390fd5b826004600084815260200190815260200160002060006101000a81548173ffffffffffffffffffffffffffffffffffffffff021916908373ffffffffffffffffffffffffffffffffffffffff160217905550818373ffffffffffffffffffffffffffffffffffffffff168273ffffffffffffffffffffffffffffffffffffffff167f8c5be1e5ebec7d5bd14f71427d1e84f3dd0314c0f7b2291e5b200ac8c7c3b92560405160405180910390a4505050565b60006001600a54610b2e9190612eb3565b905090565b6002600082815260200190815260200160002060009054906101000a900473ffffffffffffffffffffffffffffffffffffffff1673ffffffffffffffffffffffffffffffffffffffff168373ffffffffffffffffffffffffffffffffffffffff1614610bd4576040517f08c379a0000000000000000000000000000000000000000000000000000000008152600401610bcb90612f33565b60405180910390fd5b600073ffffffffffffffffffffffffffffffffffffffff168273ffffffffffffffffffffffffffffffffffffffff1603610c43576040517f08c379a0000000000000000000000000000000000000000000000000000000008152600401610c3a90612f9f565b60405180910390fd5b8273ffffffffffffffffffffffffffffffffffffffff163373ffffffffffffffffffffffffffffffffffffffff161480610d035750600560008473ffffffffffffffffffffffffffffffffffffffff1673ffffffffffffffffffffffffffffffffffffffff16815260200190815260200160002060003373ffffffffffffffffffffffffffffffffffffffff1673ffffffffffffffffffffffffffffffffffffffff16815260200190815260200160002060009054906101000a900460ff165b80610d6c57506004600082815260200190815260200160002060009054906101000a900473ffffffffffffffffffffffffffffffffffffffff1673ffffffffffffffffffffffffffffffffffffffff163373ffffffffffffffffffffffffffffffffffffffff16145b610dab576040517f08c379a0000000000000000000000000000000000000000000000000000000008152600401610da290612e93565b60405180910390fd5b600360008473ffffffffffffffffffffffffffffffffffffffff1673ffffffffffffffffffffffffffffffffffffffff1681526020019081526020016000206000815480929190600190039190505550600360008373ffffffffffffffffffffffffffffffffffffffff1673ffffffffffffffffffffffffffffffffffffffff16815260200190815260200160002060008154809291906001019190505550816002600083815260200190815260200160002060006101000a81548173ffffffffffffffffffffffffffffffffffffffff021916908373ffffffffffffffffffffffffffffffffffffffff1602179055506004600082815260200190815260200160002060006101000a81549073ffffffffffffffffffffffffffffffffffffffff0219169055808273ffffffffffffffffffffffffffffffffffffffff168473ffffffffffffffffffffffffffffffffffffffff167fddf252ad1be2c89b69c2b068fc378daa952ba7f163c4a11628f55a4df523b3ef60405160405180910390a4505050565b610f3a6122e2565b60003373ffffffffffffffffffffffffffffffffffffffff16610f5c8461145d565b73ffffffffffffffffffffffffffffffffffffffff1603610f7c57600190505b60096000848152602001908152602001600020604051806080016040529081600082018054610faa90612b98565b80601f0160208091040260200160405190810160405280929190818152602001828054610fd690612b98565b80156110235780601f10610ff857610100808354040283529160200191611023565b820191906000526020600020905b81548152906001019060200180831161100657829003601f168201915b5050505050815260200160018201805461103c90612b98565b80601f016020809104026020016040519081016040528092919081815260200182805461106890612b98565b80156110b55780601f1061108a576101008083540402835291602001916110b5565b820191906000526020600020905b81548152906001019060200180831161109857829003601f168201915b505050505081526020016002820180546110ce90612b98565b80601f01602080910402602001604051908101604052809291908181526020018280546110fa90612b98565b80156111475780601f1061111c57610100808354040283529160200191611147565b820191906000526020600020905b81548152906001019060200180831161112a57829003601f168201915b5050505050815260200160038201805461116090612b98565b80601f016020809104026020016040519081016040528092919081815260200182805461118c90612b98565b80156111d95780601f106111ae576101008083540402835291602001916111d9565b820191906000526020600020905b8154815290600101906020018083116111bc57829003601f168201915b5050505050815250509150915091565b600660009054906101000a900473ffffffffffffffffffffffffffffffffffffffff1673ffffffffffffffffffffffffffffffffffffffff163373ffffffffffffffffffffffffffffffffffffffff1614611279576040517f08c379a00000000000000000000000000000000000000000000000000000000081526004016112709061300b565b60405180910390fd5b60003373ffffffffffffffffffffffffffffffffffffffff164760405161129f9061305c565b60006040518083038185875af1925050503d80600081146112dc576040519150601f19603f3d011682016040523d82523d6000602084013e6112e1565b606091505b505090508061131c576040517f90b8ec1800000000000000000000000000000000000000000000000000000000815260040160405180910390fd5b50565b61132a838383610b33565b60008273ffffffffffffffffffffffffffffffffffffffff163b1480611413575063150b7a0260e01b7bffffffffffffffffffffffffffffffffffffffffffffffffffffffff19168273ffffffffffffffffffffffffffffffffffffffff1663150b7a023386856040518463ffffffff1660e01b81526004016113af939291906130a5565b6020604051808303816000875af11580156113ce573d6000803e3d6000fd5b505050506040513d601f19601f820116820180604052508101906113f29190613104565b7bffffffffffffffffffffffffffffffffffffffffffffffffffffffff1916145b611452576040517f08c379a00000000000000000000000000000000000000000000000000000000081526004016114499061317d565b60405180910390fd5b505050565b600c5481565b60008073ffffffffffffffffffffffffffffffffffffffff166002600084815260200190815260200160002060009054906101000a900473ffffffffffffffffffffffffffffffffffffffff1691508173ffffffffffffffffffffffffffffffffffffffff1603611503576040517f08c379a00000000000000000000000000000000000000000000000000000000081526004016114fa906131e9565b60405180910390fd5b919050565b600b5481565b60008073ffffffffffffffffffffffffffffffffffffffff168273ffffffffffffffffffffffffffffffffffffffff160361157e576040517f08c379a000000000000000000000000000000000000000000000000000000000815260040161157590613255565b60405180910390fd5b600360008373ffffffffffffffffffffffffffffffffffffffff1673ffffffffffffffffffffffffffffffffffffffff168152602001908152602001600020549050919050565b6000600860003373ffffffffffffffffffffffffffffffffffffffff1673ffffffffffffffffffffffffffffffffffffffff16815260200190815260200160002054905060006009600083815260200190815260200160002060405180608001604052908160008201805461163990612b98565b80601f016020809104026020016040519081016040528092919081815260200182805461166590612b98565b80156116b25780601f10611687576101008083540402835291602001916116b2565b820191906000526020600020905b81548152906001019060200180831161169557829003601f168201915b505050505081526020016001820180546116cb90612b98565b80601f01602080910402602001604051908101604052809291908181526020018280546116f790612b98565b80156117445780601f1061171957610100808354040283529160200191611744565b820191906000526020600020905b81548152906001019060200180831161172757829003601f168201915b5050505050815260200160028201805461175d90612b98565b80601f016020809104026020016040519081016040528092919081815260200182805461178990612b98565b80156117d65780601f106117ab576101008083540402835291602001916117d6565b820191906000526020600020905b8154815290600101906020018083116117b957829003601f168201915b505050505081526020016003820180546117ef90612b98565b80601f016020809104026020016040519081016040528092919081815260200182805461181b90612b98565b80156118685780601f1061183d57610100808354040283529160200191611868565b820191906000526020600020905b81548152906001019060200180831161184b57829003601f168201915b5050505050815250509050858160000181905250848160200181905250838160400181905250828160600181905250806009600084815260200190815260200160002060008201518160000190816118c09190612d75565b5060208201518160010190816118d69190612d75565b5060408201518160020190816118ec9190612d75565b5060608201518160030190816119029190612d75565b50905050817f4662c9b447b91c3e799d1eeb7fe95d4068d5b314647159af369ea1b27f38551160405160405180910390a2505050505050565b600660009054906101000a900473ffffffffffffffffffffffffffffffffffffffff1681565b600660009054906101000a900473ffffffffffffffffffffffffffffffffffffffff1673ffffffffffffffffffffffffffffffffffffffff163373ffffffffffffffffffffffffffffffffffffffff16146119f1576040517f08c379a00000000000000000000000000000000000000000000000000000000081526004016119e89061300b565b60405180910390fd5b80600b8190555050565b60018054611a0890612b98565b80601f0160208091040260200160405190810160405280929190818152602001828054611a3490612b98565b8015611a815780601f10611a5657610100808354040283529160200191611a81565b820191906000526020600020905b815481529060010190602001808311611a6457829003601f168201915b505050505081565b80600560003373ffffffffffffffffffffffffffffffffffffffff1673ffffffffffffffffffffffffffffffffffffffff16815260200190815260200160002060008473ffffffffffffffffffffffffffffffffffffffff1673ffffffffffffffffffffffffffffffffffffffff16815260200190815260200160002060006101000a81548160ff0219169083151502179055508173ffffffffffffffffffffffffffffffffffffffff163373ffffffffffffffffffffffffffffffffffffffff167f17307eab39ab6107e8899845ad3d59bd9653f200f220920489ca2b5937696c3183604051611b7a91906123be565b60405180910390a35050565b611b91858585610b33565b60008473ffffffffffffffffffffffffffffffffffffffff163b1480611c7e575063150b7a0260e01b7bffffffffffffffffffffffffffffffffffffffffffffffffffffffff19168473ffffffffffffffffffffffffffffffffffffffff1663150b7a0233888787876040518663ffffffff1660e01b8152600401611c1a9594939291906132a2565b6020604051808303816000875af1158015611c39573d6000803e3d6000fd5b505050506040513d601f19601f82011682018060405250810190611c5d9190613104565b7bffffffffffffffffffffffffffffffffffffffffffffffffffffffff1916145b611cbd576040517f08c379a0000000000000000000000000000000000000000000000000000000008152600401611cb49061317d565b60405180910390fd5b5050505050565b60606000600d8054905083611cd9919061331f565b9050600d8181548110611cef57611cee613350565b5b906000526020600020018054611d0490612b98565b80601f0160208091040260200160405190810160405280929190818152602001828054611d3090612b98565b8015611d7d5780601f10611d5257610100808354040283529160200191611d7d565b820191906000526020600020905b815481529060010190602001808311611d6057829003601f168201915b5050505050915050919050565b600660009054906101000a900473ffffffffffffffffffffffffffffffffffffffff1673ffffffffffffffffffffffffffffffffffffffff163373ffffffffffffffffffffffffffffffffffffffff1614611e1a576040517f08c379a0000000000000000000000000000000000000000000000000000000008152600401611e119061300b565b60405180910390fd5b80600c8190555050565b60056020528160005260406000206020528060005260406000206000915091509054906101000a900460ff1681565b60086020528060005260406000206000915090505481565b600660009054906101000a900473ffffffffffffffffffffffffffffffffffffffff1673ffffffffffffffffffffffffffffffffffffffff163373ffffffffffffffffffffffffffffffffffffffff1614611efb576040517f08c379a0000000000000000000000000000000000000000000000000000000008152600401611ef29061300b565b60405180910390fd5b80600660006101000a81548173ffffffffffffffffffffffffffffffffffffffff021916908373ffffffffffffffffffffffffffffffffffffffff1602179055508073ffffffffffffffffffffffffffffffffffffffff163373ffffffffffffffffffffffffffffffffffffffff167f8be0079c531659141344cd1fd0a4f28419497f9722a3daafe3b4186f6b6457e060405160405180910390a350565b611fa382826120d0565b60008273ffffffffffffffffffffffffffffffffffffffff163b148061208d575063150b7a0260e01b7bffffffffffffffffffffffffffffffffffffffffffffffffffffffff19168273ffffffffffffffffffffffffffffffffffffffff1663150b7a02336000856040518463ffffffff1660e01b8152600401612029939291906130a5565b6020604051808303816000875af1158015612048573d6000803e3d6000fd5b505050506040513d601f19601f8201168201806040525081019061206c9190613104565b7bffffffffffffffffffffffffffffffffffffffffffffffffffffffff1916145b6120cc576040517f08c379a00000000000000000000000000000000000000000000000000000000081526004016120c39061317d565b60405180910390fd5b5050565b600073ffffffffffffffffffffffffffffffffffffffff168273ffffffffffffffffffffffffffffffffffffffff160361213f576040517f08c379a000000000000000000000000000000000000000000000000000000000815260040161213690612f9f565b60405180910390fd5b600073ffffffffffffffffffffffffffffffffffffffff166002600083815260200190815260200160002060009054906101000a900473ffffffffffffffffffffffffffffffffffffffff1673ffffffffffffffffffffffffffffffffffffffff16146121e1576040517f08c379a00000000000000000000000000000000000000000000000000000000081526004016121d8906133cb565b60405180910390fd5b600360008373ffffffffffffffffffffffffffffffffffffffff1673ffffffffffffffffffffffffffffffffffffffff16815260200190815260200160002060008154809291906001019190505550816002600083815260200190815260200160002060006101000a81548173ffffffffffffffffffffffffffffffffffffffff021916908373ffffffffffffffffffffffffffffffffffffffff160217905550808273ffffffffffffffffffffffffffffffffffffffff16600073ffffffffffffffffffffffffffffffffffffffff167fddf252ad1be2c89b69c2b068fc378daa952ba7f163c4a11628f55a4df523b3ef60405160405180910390a45050565b6040518060800160405280606081526020016060815260200160608152602001606081525090565b6000604051905090565b600080fd5b600080fd5b60007fffffffff0000000000000000000000000000000000000000000000000000000082169050919050565b6123538161231e565b811461235e57600080fd5b50565b6000813590506123708161234a565b92915050565b60006020828403121561238c5761238b612314565b5b600061239a84828501612361565b91505092915050565b60008115159050919050565b6123b8816123a3565b82525050565b60006020820190506123d360008301846123af565b92915050565b600080fd5b600080fd5b6000601f19601f8301169050919050565b7f4e487b7100000000000000000000000000000000000000000000000000000000600052604160045260246000fd5b61242c826123e3565b810181811067ffffffffffffffff8211171561244b5761244a6123f4565b5b80604052505050565b600061245e61230a565b905061246a8282612423565b919050565b600067ffffffffffffffff82111561248a576124896123f4565b5b612493826123e3565b9050602081019050919050565b82818337600083830152505050565b60006124c26124bd8461246f565b612454565b9050828152602081018484840111156124de576124dd6123de565b5b6124e98482856124a0565b509392505050565b600082601f830112612506576125056123d9565b5b81356125168482602086016124af565b91505092915050565b6000806000806080858703121561253957612538612314565b5b600085013567ffffffffffffffff81111561255757612556612319565b5b612563878288016124f1565b945050602085013567ffffffffffffffff81111561258457612583612319565b5b612590878288016124f1565b935050604085013567ffffffffffffffff8111156125b1576125b0612319565b5b6125bd878288016124f1565b925050606085013567ffffffffffffffff8111156125de576125dd612319565b5b6125ea878288016124f1565b91505092959194509250565b600081519050919050565b600082825260208201905092915050565b60005b83811015612630578082015181840152602081019050612615565b60008484015250505050565b6000612647826125f6565b6126518185612601565b9350612661818560208601612612565b61266a816123e3565b840191505092915050565b6000602082019050818103600083015261268f818461263c565b905092915050565b6000819050919050565b6126aa81612697565b81146126b557600080fd5b50565b6000813590506126c7816126a1565b92915050565b6000602082840312156126e3576126e2612314565b5b60006126f1848285016126b8565b91505092915050565b600073ffffffffffffffffffffffffffffffffffffffff82169050919050565b6000612725826126fa565b9050919050565b6127358161271a565b82525050565b6000602082019050612750600083018461272c565b92915050565b61275f8161271a565b811461276a57600080fd5b50565b60008135905061277c81612756565b92915050565b6000806040838503121561279957612798612314565b5b60006127a78582860161276d565b92505060206127b8858286016126b8565b9150509250929050565b6127cb81612697565b82525050565b60006020820190506127e660008301846127c2565b92915050565b60008060006060848603121561280557612804612314565b5b60006128138682870161276d565b93505060206128248682870161276d565b9250506040612835868287016126b8565b9150509250925092565b600082825260208201905092915050565b600061285b826125f6565b612865818561283f565b9350612875818560208601612612565b61287e816123e3565b840191505092915050565b600060808301600083015184820360008601526128a68282612850565b915050602083015184820360208601526128c08282612850565b915050604083015184820360408601526128da8282612850565b915050606083015184820360608601526128f48282612850565b9150508091505092915050565b6000604082019050818103600083015261291b8185612889565b905061292a60208301846123af565b9392505050565b60006020828403121561294757612946612314565b5b60006129558482850161276d565b91505092915050565b612967816123a3565b811461297257600080fd5b50565b6000813590506129848161295e565b92915050565b600080604083850312156129a1576129a0612314565b5b60006129af8582860161276d565b92505060206129c085828601612975565b9150509250929050565b600080fd5b600080fd5b60008083601f8401126129ea576129e96123d9565b5b8235905067ffffffffffffffff811115612a0757612a066129ca565b5b602083019150836001820283011115612a2357612a226129cf565b5b9250929050565b600080600080600060808688031215612a4657612a45612314565b5b6000612a548882890161276d565b9550506020612a658882890161276d565b9450506040612a76888289016126b8565b935050606086013567ffffffffffffffff811115612a9757612a96612319565b5b612aa3888289016129d4565b92509250509295509295909350565b60008060408385031215612ac957612ac8612314565b5b6000612ad78582860161276d565b9250506020612ae88582860161276d565b9150509250929050565b7f4e487b7100000000000000000000000000000000000000000000000000000000600052601160045260246000fd5b6000612b2c82612697565b91507fffffffffffffffffffffffffffffffffffffffffffffffffffffffffffffffff8203612b5e57612b5d612af2565b5b600182019050919050565b7f4e487b7100000000000000000000000000000000000000000000000000000000600052602260045260246000fd5b60006002820490506001821680612bb057607f821691505b602082108103612bc357612bc2612b69565b5b50919050565b60008190508160005260206000209050919050565b60006020601f8301049050919050565b600082821b905092915050565b600060088302612c2b7fffffffffffffffffffffffffffffffffffffffffffffffffffffffffffffffff82612bee565b612c358683612bee565b95508019841693508086168417925050509392505050565b6000819050919050565b6000612c72612c6d612c6884612697565b612c4d565b612697565b9050919050565b6000819050919050565b612c8c83612c57565b612ca0612c9882612c79565b848454612bfb565b825550505050565b600090565b612cb5612ca8565b612cc0818484612c83565b505050565b5b81811015612ce457612cd9600082612cad565b600181019050612cc6565b5050565b601f821115612d2957612cfa81612bc9565b612d0384612bde565b81016020851015612d12578190505b612d26612d1e85612bde565b830182612cc5565b50505b505050565b600082821c905092915050565b6000612d4c60001984600802612d2e565b1980831691505092915050565b6000612d658383612d3b565b9150826002028217905092915050565b612d7e826125f6565b67ffffffffffffffff811115612d9757612d966123f4565b5b612da18254612b98565b612dac828285612ce8565b600060209050601f831160018114612ddf5760008415612dcd578287015190505b612dd78582612d59565b865550612e3f565b601f198416612ded86612bc9565b60005b82811015612e1557848901518255600182019150602085019450602081019050612df0565b86831015612e325784890151612e2e601f891682612d3b565b8355505b6001600288020188555050505b505050505050565b7f4e4f545f415554484f52495a4544000000000000000000000000000000000000600082015250565b6000612e7d600e83612601565b9150612e8882612e47565b602082019050919050565b60006020820190508181036000830152612eac81612e70565b9050919050565b6000612ebe82612697565b9150612ec983612697565b9250828203905081811115612ee157612ee0612af2565b5b92915050565b7f57524f4e475f46524f4d00000000000000000000000000000000000000000000600082015250565b6000612f1d600a83612601565b9150612f2882612ee7565b602082019050919050565b60006020820190508181036000830152612f4c81612f10565b9050919050565b7f494e56414c49445f524543495049454e54000000000000000000000000000000600082015250565b6000612f89601183612601565b9150612f9482612f53565b602082019050919050565b60006020820190508181036000830152612fb881612f7c565b9050919050565b7f554e415554484f52495a45440000000000000000000000000000000000000000600082015250565b6000612ff5600c83612601565b915061300082612fbf565b602082019050919050565b6000602082019050818103600083015261302481612fe8565b9050919050565b600081905092915050565b50565b600061304660008361302b565b915061305182613036565b600082019050919050565b600061306782613039565b9150819050919050565b600082825260208201905092915050565b600061308f600083613071565b915061309a82613036565b600082019050919050565b60006080820190506130ba600083018661272c565b6130c7602083018561272c565b6130d460408301846127c2565b81810360608301526130e581613082565b9050949350505050565b6000815190506130fe8161234a565b92915050565b60006020828403121561311a57613119612314565b5b6000613128848285016130ef565b91505092915050565b7f554e534146455f524543495049454e5400000000000000000000000000000000600082015250565b6000613167601083612601565b915061317282613131565b602082019050919050565b600060208201905081810360008301526131968161315a565b9050919050565b7f4e4f545f4d494e54454400000000000000000000000000000000000000000000600082015250565b60006131d3600a83612601565b91506131de8261319d565b602082019050919050565b60006020820190508181036000830152613202816131c6565b9050919050565b7f5a45524f5f414444524553530000000000000000000000000000000000000000600082015250565b600061323f600c83612601565b915061324a82613209565b602082019050919050565b6000602082019050818103600083015261326e81613232565b9050919050565b60006132818385613071565b935061328e8385846124a0565b613297836123e3565b840190509392505050565b60006080820190506132b7600083018861272c565b6132c4602083018761272c565b6132d160408301866127c2565b81810360608301526132e4818486613275565b90509695505050505050565b7f4e487b7100000000000000000000000000000000000000000000000000000000600052601260045260246000fd5b600061332a82612697565b915061333583612697565b925082613345576133446132f0565b5b828206905092915050565b7f4e487b7100000000000000000000000000000000000000000000000000000000600052603260045260246000fd5b7f414c52454144595f4d494e544544000000000000000000000000000000000000600082015250565b60006133b5600e83612601565b91506133c08261337f565b602082019050919050565b600060208201905081810360008301526133e4816133a8565b905091905056fea2646970667358221220da79e9faefb5f3e56d0d041e7f271ba351e3c86c3591abcf5630b760dee954fc64736f6c6343000818003368747470733a2f2f697066732e66696c65626173652e696f2f697066732f516d556a527a6f777a7545747831564d7a44466f46704d334261616279696a7839704e484b56387a4d517a53664368747470733a2f2f697066732e66696c65626173652e696f2f697066732f516d5a487438563364697756544671584b78384e514e7467414b415134714d787243636f567861526b486d4b6551",
  "linkReferences": {},
  "deployedLinkReferences": {}
}